{
    "_format": "hh-sol-artifact-1",
    "contractName": "Shipments",
    "sourceName": "contracts/Shipments.sol",
    "abi": [
        {
            "inputs": [
                {
                    "internalType": "uint256",
                    "name": "",
                    "type": "uint256"
                }
            ],
            "name": "Shipment_by_No",
            "outputs": [
                {
                    "internalType": "string",
                    "name": "shipmentid",
                    "type": "string"
                },
                {
                    "internalType": "string",
                    "name": "indentRequest",
                    "type": "string"
                },
                {
                    "internalType": "uint256",
                    "name": "qty",
                    "type": "uint256"
                },
                {
                    "internalType": "uint256",
                    "name": "timestamp",
                    "type": "uint256"
                },
                {
                    "internalType": "address payable",
                    "name": "sender",
                    "type": "address"
                },
                {
                    "internalType": "address payable",
                    "name": "receiver",
                    "type": "address"
                },
                {
                    "internalType": "uint256",
                    "name": "index",
                    "type": "uint256"
                }
            ],
            "stateMutability": "view",
            "type": "function"
        },
        {
            "inputs": [
                {
                    "internalType": "string",
                    "name": "_shipmentid",
                    "type": "string"
                },
                {
                    "internalType": "string",
                    "name": "_indentRequest",
                    "type": "string"
                },
                {
                    "internalType": "uint256",
                    "name": "_qty",
                    "type": "uint256"
                },
                {
                    "internalType": "uint256",
                    "name": "_timestamp",
                    "type": "uint256"
                },
                {
                    "internalType": "address payable",
                    "name": "receiverAdd",
                    "type": "address"
                }
            ],
            "name": "addShipment",
            "outputs": [
                {
                    "internalType": "uint256",
                    "name": "",
                    "type": "uint256"
                }
            ],
            "stateMutability": "nonpayable",
            "type": "function"
        },
        {
            "inputs": [],
            "name": "findIndex",
            "outputs": [
                {
                    "internalType": "uint256",
                    "name": "",
                    "type": "uint256"
                }
            ],
            "stateMutability": "view",
            "type": "function"
        },
        {
            "inputs": [],
            "name": "no_of_shipments",
            "outputs": [
                {
                    "internalType": "uint256",
                    "name": "",
                    "type": "uint256"
                }
            ],
            "stateMutability": "view",
            "type": "function"
        },
        {
            "inputs": [
                {
                    "internalType": "uint256",
                    "name": "_index",
                    "type": "uint256"
                },
                {
                    "internalType": "string",
                    "name": "_shipmentid",
                    "type": "string"
                },
                {
                    "internalType": "string",
                    "name": "_indentRequest",
                    "type": "string"
                },
                {
                    "internalType": "uint256",
                    "name": "_qty",
                    "type": "uint256"
                },
                {
                    "internalType": "uint256",
                    "name": "_timestamp",
                    "type": "uint256"
                },
                {
                    "internalType": "address payable",
                    "name": "receiverAdd",
                    "type": "address"
                }
            ],
            "name": "updateShipment",
            "outputs": [],
            "stateMutability": "nonpayable",
            "type": "function"
        }
    ],
    "bytecode": "0x6080604052600060025534801561001557600080fd5b50610c9c806100256000396000f3fe608060405234801561001057600080fd5b50600436106100575760003560e01c80630cf22dce1461005c5780631fe3cc671461007a578063bb14ff02146100b0578063bd1ea805146100e0578063fc6f948e146100fc575b600080fd5b61006461011a565b60405161007191906106d5565b60405180910390f35b610094600480360381019061008f9190610730565b610124565b6040516100a79796959493929190610837565b60405180910390f35b6100ca60048036038101906100c59190610a15565b6102b6565b6040516100d791906106d5565b60405180910390f35b6100fa60048036038101906100f59190610ac8565b610476565b005b610104610613565b60405161011191906106d5565b60405180910390f35b6000600254905090565b600360205280600052604060002060009150905080600001805461014790610bbc565b80601f016020809104026020016040519081016040528092919081815260200182805461017390610bbc565b80156101c05780601f10610195576101008083540402835291602001916101c0565b820191906000526020600020905b8154815290600101906020018083116101a357829003601f168201915b5050505050908060010180546101d590610bbc565b80601f016020809104026020016040519081016040528092919081815260200182805461020190610bbc565b801561024e5780601f106102235761010080835404028352916020019161024e565b820191906000526020600020905b81548152906001019060200180831161023157829003601f168201915b5050505050908060020154908060030154908060040160009054906101000a900473ffffffffffffffffffffffffffffffffffffffff16908060050160009054906101000a900473ffffffffffffffffffffffffffffffffffffffff16908060060154905087565b60008073ffffffffffffffffffffffffffffffffffffffff163373ffffffffffffffffffffffffffffffffffffffff1614156102f157600080fd5b6002600081548092919061030490610c1d565b91905055506040518060e001604052808781526020018681526020018581526020018481526020013373ffffffffffffffffffffffffffffffffffffffff1681526020018373ffffffffffffffffffffffffffffffffffffffff168152602001600254815250600360006002548152602001908152602001600020600082015181600001908051906020019061039b929190610619565b5060208201518160010190805190602001906103b8929190610619565b50604082015181600201556060820151816003015560808201518160040160006101000a81548173ffffffffffffffffffffffffffffffffffffffff021916908373ffffffffffffffffffffffffffffffffffffffff16021790555060a08201518160050160006101000a81548173ffffffffffffffffffffffffffffffffffffffff021916908373ffffffffffffffffffffffffffffffffffffffff16021790555060c08201518160060155905050600254905095945050505050565b600073ffffffffffffffffffffffffffffffffffffffff163373ffffffffffffffffffffffffffffffffffffffff1614156104b057600080fd5b6040518060e001604052808681526020018581526020018481526020018381526020013373ffffffffffffffffffffffffffffffffffffffff1681526020018273ffffffffffffffffffffffffffffffffffffffff1681526020018781525060036000888152602001908152602001600020600082015181600001908051906020019061053e929190610619565b50602082015181600101908051906020019061055b929190610619565b50604082015181600201556060820151816003015560808201518160040160006101000a81548173ffffffffffffffffffffffffffffffffffffffff021916908373ffffffffffffffffffffffffffffffffffffffff16021790555060a08201518160050160006101000a81548173ffffffffffffffffffffffffffffffffffffffff021916908373ffffffffffffffffffffffffffffffffffffffff16021790555060c08201518160060155905050505050505050565b60025481565b82805461062590610bbc565b90600052602060002090601f016020900481019282610647576000855561068e565b82601f1061066057805160ff191683800117855561068e565b8280016001018555821561068e579182015b8281111561068d578251825591602001919060010190610672565b5b50905061069b919061069f565b5090565b5b808211156106b85760008160009055506001016106a0565b5090565b6000819050919050565b6106cf816106bc565b82525050565b60006020820190506106ea60008301846106c6565b92915050565b6000604051905090565b600080fd5b600080fd5b61070d816106bc565b811461071857600080fd5b50565b60008135905061072a81610704565b92915050565b600060208284031215610746576107456106fa565b5b60006107548482850161071b565b91505092915050565b600081519050919050565b600082825260208201905092915050565b60005b8381101561079757808201518184015260208101905061077c565b838111156107a6576000848401525b50505050565b6000601f19601f8301169050919050565b60006107c88261075d565b6107d28185610768565b93506107e2818560208601610779565b6107eb816107ac565b840191505092915050565b600073ffffffffffffffffffffffffffffffffffffffff82169050919050565b6000610821826107f6565b9050919050565b61083181610816565b82525050565b600060e0820190508181036000830152610851818a6107bd565b9050818103602083015261086581896107bd565b905061087460408301886106c6565b61088160608301876106c6565b61088e6080830186610828565b61089b60a0830185610828565b6108a860c08301846106c6565b98975050505050505050565b600080fd5b600080fd5b7f4e487b7100000000000000000000000000000000000000000000000000000000600052604160045260246000fd5b6108f6826107ac565b810181811067ffffffffffffffff82111715610915576109146108be565b5b80604052505050565b60006109286106f0565b905061093482826108ed565b919050565b600067ffffffffffffffff821115610954576109536108be565b5b61095d826107ac565b9050602081019050919050565b82818337600083830152505050565b600061098c61098784610939565b61091e565b9050828152602081018484840111156109a8576109a76108b9565b5b6109b384828561096a565b509392505050565b600082601f8301126109d0576109cf6108b4565b5b81356109e0848260208601610979565b91505092915050565b6109f281610816565b81146109fd57600080fd5b50565b600081359050610a0f816109e9565b92915050565b600080600080600060a08688031215610a3157610a306106fa565b5b600086013567ffffffffffffffff811115610a4f57610a4e6106ff565b5b610a5b888289016109bb565b955050602086013567ffffffffffffffff811115610a7c57610a7b6106ff565b5b610a88888289016109bb565b9450506040610a998882890161071b565b9350506060610aaa8882890161071b565b9250506080610abb88828901610a00565b9150509295509295909350565b60008060008060008060c08789031215610ae557610ae46106fa565b5b6000610af389828a0161071b565b965050602087013567ffffffffffffffff811115610b1457610b136106ff565b5b610b2089828a016109bb565b955050604087013567ffffffffffffffff811115610b4157610b406106ff565b5b610b4d89828a016109bb565b9450506060610b5e89828a0161071b565b9350506080610b6f89828a0161071b565b92505060a0610b8089828a01610a00565b9150509295509295509295565b7f4e487b7100000000000000000000000000000000000000000000000000000000600052602260045260246000fd5b60006002820490506001821680610bd457607f821691505b60208210811415610be857610be7610b8d565b5b50919050565b7f4e487b7100000000000000000000000000000000000000000000000000000000600052601160045260246000fd5b6000610c28826106bc565b91507fffffffffffffffffffffffffffffffffffffffffffffffffffffffffffffffff821415610c5b57610c5a610bee565b5b60018201905091905056fea264697066735822122079ef79cb8d1465c4b7f8a689b214a719db4c4d3ef09c41cf1f95184a918f036b64736f6c63430008090033",
    "linkReferences": {},
    "deployedLinkReferences": {}
}